:100000000C9466000C948E000C948E000C948E0060
:100010000C948E000C948E000C948E000C948E0028
:100020000C948E000C948E000C948E000C94300373
:100030000C948E000C948E000C948E000C948E0008
:100040000C9441100C948E000C9452130C94841355
:100050000C948E000C948E000C948E000C948E00E8
:100060000C94140F0C948E00000000080002010094
:100070000003040700000000000000000102040863
:100080001020408001020408102001020408102002
:10009000040404040404040402020202020203032E
:1000A00003030303000000002300260029000000D2
:1000B0000000250028002B0000000000240027007D
:1000C0002A00DC0124057B072A0EB41311241FBE6D
:1000D000CFEFD8E0DEBFCDBF11E0A0E0B1E0E2E9B4
:1000E000FBE202C005900D92A238B107D9F725E0D6
:1000F000A2E8B1E001C01D92AE36B207E1F710E010
:10010000CCECD0E004C02297FE010E94B415C23CA2
:10011000D107C9F70E943A150C94C7150C9400003A
:10012000DC01ED91FC910190F081E02D099461E0FA
:100130008DE00E94751160E082E00E94751169E017
:1001400070E082E891E00E94860426E040E855E2F3
:1001500060E070E081ED94E00E94F01288E094E0AD
:100160000E949E0D68E670E088E094E00E94B20D67
:100170006BE670E088E094E00E94900060E070E040
:1001800088E094E00E94900061E088E094E00C94A4
:10019000B40DCF93DF93EC0161E08DE00E94AE11CE
:1001A000BE01882777FD8095982F0E94BA1060E0E5
:1001B0008DE00E94AE1168EE73E080E090E0DF9188
:1001C000CF910C94BA1068EE73E080E090E00C944C
:1001D000BA108FE00C942F118EE00C942F1180E157
:1001E0000C942F110E94EF0021E0C29708F020E04C
:1001F000822F089581E10C942F1182E00E94E41176
:1002000021E0019709F020E0822F089585E10C9408
:100210002F1161E171E081ED94E00E94351481E0DD
:1002200008958254833130F4E82FF0E0E95BFE4F0B
:10023000808101C080EE7F71782B4AE050E081ED33
:1002400094E00E94EC1465E471E081ED94E00E947A
:10025000351481E00895AF92BF92CF92DF92EF9272
:10026000FF920F931F93CF93DF930E94EC005C01EA
:100270000E94E9006C010E94EF007C010E94FA00DC
:100280008C010E940601EC0184E690E00E94C90006
:10029000B50180E50E941101B60184E50E941101BB
:1002A000B70184E40E941101B80183E40E941101A6
:1002B000BE0182E40E94110181E0DF91CF911F9184
:1002C0000F91FF90EF90DF90CF90BF90AF90089587
:1002D000CF92DF92EF92FF920F931F93CF93DF9312
:1002E000CDB7DEB72E970FB6F894DEBF0FBECDBFE9
:1002F000C982DA82EB82FC820D831E832F833887CA
:1003000049875A876B877C878D879E874AE050E0B4
:1003100060EF70E081ED94E00E94D71469817A81EA
:100320004AE050E081ED94E00E94D7146B817C811B
:100330004AE050E081ED94E00E94D7146D817E8107
:100340004AE050E081ED94E00E94D7146F817885F7
:100350004AE050E081ED94E00E94D71469857A85E7
:100360004AE050E081ED94E00E94D7146B857C85D3
:100370004AE050E081ED94E00E94D7146D857E85BF
:100380004AE050E081ED94E00E94D71465E471E00A
:1003900081ED94E00E94351481E02E960FB6F8941A
:1003A000DEBF0FBECDBFDF91CF911F910F91FF90A8
:1003B000EF90DF90CF90089582E891E00C94EC03E9
:1003C0002F923F924F925F926F927F928F929F9265
:1003D000AF92BF92CF92DF92EF92FF920F931F9353
:1003E000CF93DF93CDB7DEB72E970FB6F894DEBF6D
:1003F0000FBECDBF68E670E088E094E00E94B20DC9
:100400006BE370E088E094E00E94900060E088E098
:1004100094E00E94B40D21E030E04EE050E068E648
:1004200070E088E094E00E94280E88E094E00E944A
:100430000F0D182F88E094E00E940F0D20E030E0AF
:10044000312F8901082B192B88E094E00E940F0DB1
:10045000F82E88E094E00E940F0D20E030E03F2D60
:100460005901A82AB92A88E094E00E940F0DF82EBD
:1004700088E094E00E940F0D20E030E03F2D49011C
:10048000882A992A88E094E00E940F0DF82E88E0CF
:1004900094E00E940F0D20E030E03F2D3901682AE2
:1004A000792A88E094E00E940F0DF82E88E094E00D
:1004B0000E940F0D20E030E03F2D2901482A592AE3
:1004C00088E094E00E940F0DF82E88E094E00E94EE
:1004D0000F0D20E030E03F2D1901282A392A88E04D
:1004E00094E00E940F0DF82E88E094E00E940F0D1A
:1004F000C02E1A830983EA2CBC82AB82082D9E820F
:100500008D82262D78866F82442D5A864986622DEB
:100510003C862B86E0E0F0E0FF2D8E2B9F2B9E8704
:100520008D87DA80FC801E8138855A857C859E8582
:100530000E9468012E960FB6F894DEBF0FBECDBFA5
:10054000DF91CF911F910F91FF90EF90DF90CF90AF
:10055000BF90AF909F908F907F906F905F904F90E3
:100560003F902F900895CF93DF9300D000D000D01C
:10057000CDB7DEB70E94FD008823B1F160E371E0E2
:1005800081ED94E00E9435140E94E30020918801DF
:10059000309189018091820190918301A091840121
:1005A000232B81F48C839D83AE836AE570E0CE01BA
:1005B00004960E94BF0481E090E0909389018093AB
:1005C00088010DC089839A83AB8360E070E0CE011F
:1005D00001960E94BF04109289011092880188E858
:1005E00093E10E94C90033C00E94F200882319F0F1
:1005F00081E08093850180918501882351F080916D
:100600008701873030F00E94090110928501109215
:1006100087010E942B01809386010E94E001809354
:10062000860180918501882331F0809187018F5F59
:100630008093870102C01092870160910A01709136
:100640000B01882777FD8095982F0E94BA10269677
:100650000FB6F894DEBF0FBECDBFDF91CF910895E6
:100660001F920F920FB60F9211242F933F934F9327
:100670005F936F937F938F939F93AF93BF93EF930A
:10068000FF9380918B0187FF05C010928500109227
:1006900084001AC020918B01332727FD309580916B
:1006A0008A0190E0281739077CF480918B01992703
:1006B00087FD9095FC01EE0FFF1FE80FF91FE4572F
:1006C000FE4F808186FD15C080918B018F5F8093E6
:1006D0008B0120918B01332727FD309580918A0172
:1006E00090E028173907BCF480918B018C305CF1C5
:1006F00012C080918B01992787FD9095FC01EE0F28
:10070000FF1FE80FF91FE457FE4F808160E08F73F1
:100710000E94AE11D9CF80918400909185000496FB
:1007200080349C4918F480E49CE905C080918400E1
:1007300090918500049690938900809388008FEFB4
:1007400080938B0138C02091840030918500809186
:100750008B01992787FD9095FC01EE0FFF1FE80F95
:10076000F91FE457FE4F81819281820F931F90936E
:1007700089008093880080918B01992787FD90954F
:10078000FC01EE0FFF1FE80FF91FE457FE4F8081B9
:1007900086FF11C080918B01992787FD9095FC0100
:1007A000EE0FFF1FE80FF91FE457FE4F808161E055
:1007B0008F730E94AE11FF91EF91BF91AF919F9106
:1007C0008F917F916F915F914F913F912F910F90FA
:1007D0000FBE0F901F90189520918A012C30A0F425
:1007E00031E0320F30938A01FC012083822F90E0A8
:1007F000FC01EE0FFF1FE80FF91FE457FE4F88EBD7
:100800009BE09283818308952FEFFC01208308955C
:10081000DF92EF92FF920F931F93CF93DF93EC0140
:10082000D62E7A01890188818C3008F066C061E09B
:100830008D2D0E9475118881A82FB0E0FD01EE0F6B
:10084000FF1FEA0FFB1FE457FE4F2D2D2F739081E2
:10085000907C922B908360E272E06E197F0977FFA3
:1008600002C06D5F7F4F7595679575956795698334
:1008700040E659E0401B510B57FF02C04D5F5F4FF0
:1008800055954795559547954A836CE00E945A15B2
:100890009CE0899FB001112420E030E0A901460FBF
:1008A000571FFA01EE0FFF1FE40FF51FE457FE4F2D
:1008B000908196FD16C02F5F3F4F2C30310571F7A8
:1008C00081110FC01092800082E08093810010920D
:1008D000850010928400B19A80916F0082608093AD
:1008E0006F00888190E0FC01EE0FFF1FE80FF91FF9
:1008F000E457FE4F8081806480838881DF91CF91AF
:100900001F910F91FF90EF90DF90089520E639E05E
:1009100040E252E00C940804FC0180818C3070F5B8
:10092000918128E830E0291B310997FD3395220F8A
:10093000331F220F331F621773077CF0928128E563
:1009400032E0291B310997FD3395220F331F220F07
:10095000331F621773070CF49B0122503109220FD9
:10096000331F4FB7F89490E0FC01EE0FFF1FE80F24
:10097000F91FE457FE4F328321834FBF08954F92F2
:100980005F926F927F92AF92BF92CF92DF92EF927F
:10099000FF920F931F93CF93DF93EC01603282E0BD
:1009A00078070CF040C077FD06C0653B71052CF060
:1009B00064EB70E002C060E070E0898128E830E01C
:1009C000281B310987FD3395220F331F220F331F58
:1009D0005901CC24B7FCC094DC2C882777FD809586
:1009E000982F2A8148E552E0421B510927FD539573
:1009F000440F551F440F551F2A01662457FC60946D
:100A0000762C7F926F925F924F9214EBE12EF12C35
:100A100000E010E020E030E0A9010E94F2140F9005
:100A20000F900F900F90CE01DF91CF911F910F91FA
:100A3000FF90EF90DF90CF90BF90AF907F906F903E
:100A40005F904F900C948C041092B8011092B901F1
:100A50001092BC011092BE0182E090E0A0E0B0E0F4
:100A60008093BF019093C001A093C101B093C201D4
:100A70001092D6011092E0011092DF018EE591E014
:100A80009093DE018093DD011092E20108959FB7FB
:100A9000F8942091B2018091B001213019F48DBBFE
:100AA0009FBF08958FBF08952091B201222399F02E
:100AB0003FB7F8942091B201213059F42DB320931F
:100AC000B0014DB32091B101209524232DBB3FBF30
:100AD00002C03093B0018CBD9DBD08958EBD000055
:100AE0000DB407FEFDCF8EB508958FEF0C946E0503
:100AF00061E0FC0184810E94AE118091FC01882399
:100B000039F01092FC018091B20181110C944705DB
:100B10000895CF93DF93EC018091FC01811109C00E
:100B200081E08093FC018091FD019091FE010E9483
:100B3000540560E08C81DF91CF910C94AE11CF937E
:100B4000DF93EC018E81882389F08F8198859C0149
:100B50002F5F3F4F38872F838230924018F40E94D6
:100B60007505F3CFCE010E9478051E82DF91CF91EB
:100B700008950F931F93CF93DF93EB010E948B1087
:100B80008B010E9475058F3F49F00E948B10601BFE
:100B9000710B6C177D07A8F380E001C081E0DF9145
:100BA000CF911F910F910895CF92DF92FF920F93F3
:100BB0001F93CF93DF9300D000D0CDB7DEB76C0189
:100BC000F62E29833A834B835C830E949F05C601DE
:100BD0000E9489056CE271E0C6010E94B9058F2D63
:100BE00080640E946E0508E110E05C814B813A81CF
:100BF0002981DA01C901002E04C0B695A795979501
:100C000087950A94D2F729833A834B835C830E94A9
:100C10006E050850110929813A814B815C81083F9A
:100C20008FEF180731F7FF2029F0E8E0FE1621F0DA
:100C30008FEF03C085E901C087E80E946E0510E0D0
:100C40000E947505F601828787FF04C01F3F11F0DF
:100C50001F5FF6CF0F900F900F900F90DF91CF9105
:100C60001F910F91FF90DF90CF9008950F931F93E6
:100C7000CF93DF93EC010E948B108B010E947505CE
:100C80008A878F3F49F40E948B10601B710B6D3275
:100C90007140A0F38FE003C08E3F39F08DE08D836B
:100CA000CE010E94780580E001C081E0DF91CF9104
:100CB0001F910F910895CF92DF92EF92FF920F93C1
:100CC0001F93CF93DF93EC0169010115110509F41E
:100CD00062C0C801820F931F8130924008F05DC04E
:100CE0008E81882371F088819981AA81BB81481700
:100CF00059076A077B0729F48F819885C816D9069A
:100D000010F5488359836A837B838B85833039F060
:100D100039E0440F551F661F771F3A95D1F79A01A6
:100D2000AB0161E1CE010E94D405882319F083E074
:100D30008D8333C0CE010E943606882371F1188658
:100D40001F8281E08E838F8198858C159D0540F4EC
:100D50000E9475058F819885019698878F83F3CFC0
:100D60006701E00EF11ECE14DF0431F00E9475051C
:100D7000F60181936F01F7CF8F819885800F911FC6
:100D800098878F832985222319F08115924018F0C6
:100D9000CE010E949F0581E004C0CE010E9478052B
:100DA00080E0DF91CF911F910F91FF90EF90DF9046
:100DB000CF900895EF92FF920F931F93790100E077
:100DC00012E020E030E00E945B061F910F91FF903F
:100DD000EF900895CF92DF92EF92FF920F931F93BF
:100DE000CF93DF9300D0CDB7DEB78C01862F498338
:100DF0005A830E946E054981C42E5A81D52EE12C5A
:100E0000F12CF60181916F010E946E05FFEFEF1A40
:100E1000FF0AE11482E0F806A1F78FEF0E946E0549
:100E20008FEF0E946E050E947505F80182878F7111
:100E3000853039F081E18583C8010E94780580E022
:100E400001C081E00F900F90DF91CF911F910F9122
:100E5000FF90EF90DF90CF9008950F931F93CF9363
:100E6000DF93EC018901411551056105710511F40C
:100E700082E132C08B85833039F089E0440F551F01
:100E8000661F771F8A95D1F79A01AB0168E1CE0101
:100E90000E94D405882311F084E01EC0A8016EEFE3
:100EA000CE010E94EA068823C1F068E572E0CE0117
:100EB0000E94B905811102C085E10EC020E030E03A
:100EC000A9016DE0CE010E94D405811104C00E94E9
:100ED0007505882339F084E18D83CE010E94780561
:100EE00080E004C0CE010E94780581E0DF91CF91BF
:100EF0001F910F91089580E58093FD011092FE01EE
:100F00000895CF93DF93EC019C012A5F3F4F41E0AE
:100F100050E060E070E08B8D9C8D0E94F20B882386
:100F2000A1F04F89588D698D7A8D452B462B472B23
:100F300071F44E815F81688579854F8B588F698FF9
:100F40007A8F8C8180688C8302C080E001C081E050
:100F5000DF91CF910895CF93DF93EC01462F6E85FB
:100F60007F85888999890E94920A882341F08A891D
:100F700020E2829FC0011124885F9D4F02C080E063
:100F800090E0DF91CF9108954F925F926F927F92A0
:100F9000AF92BF92CF92DF92EF92FF920F931F9387
:100FA000CF93DF93EC016A017B012D81222309F4A9
:100FB00057C08B899C89AD89BE8984179507A60780
:100FC000B70708F44DC04EC08A859B85AC85BD85AA
:100FD000EB8DFC8DE585F0E03996AC01BD0141500B
:100FE0005109610971090E2E04C0769567955795D0
:100FF00047950A94D2F797018601015011092109FA
:10100000310904C03695279517950795EA95D2F7CB
:101010000417150726073707B0F58F89988DA98D16
:10102000BA8D8E839F83A887B987280139015E0115
:1010300086E0A80EB11C411451046104710461F1F1
:101040004E815F816885798595018B8D9C8D0E948D
:10105000CD0A91E0491A5108610871088111EBCF5E
:1010600080E01FC02230C1F0C114D104E104F104BA
:1010700009F0AACF1E821F82188619861A861B863F
:101080001C861D860DC0892B8A2B8B2B31F2041BED
:10109000150B260B370BC9CFCA86DB86EC86FD867F
:1010A00081E0DF91CF911F910F91FF90EF90DF9042
:1010B000CF90BF90AF907F906F905F904F900895CA
:1010C0000F931F93CF93DF93EC018D818823C9F198
:1010D0008C8187FF30C061E0CE010E94AB078C019C
:1010E000009779F18D81823048F44B895C896D8954
:1010F0007E89F801448F558F668F778F4F89588D81
:10110000698D7A8DF801538F428F758B648BE091D6
:10111000FF01F0910002309759F0B8016A5E7F4FED
:10112000C80148960995F801808D918D938B828B2B
:101130008C818F778C83DF91CF911F910F910C94CD
:10114000570A80E0DF91CF911F910F9108952F9260
:101150003F924F925F926F927F928F929F92AF9247
:10116000BF92CF92DF92EF92FF920F931F93CF9394
:10117000DF9300D000D01F92CDB7DEB78C017B018A
:101180003A01DC0115968C9115978130C9F41496BB
:101190008C9181FF15C082FF1BC0F80143895489DF
:1011A0006589768982859385A485B5858417950799
:1011B000A607B70769F0C8010E94C407811108C0DB
:1011C00081E090E0F8019383828380E090E046C163
:1011D000630180C0D8015B968D919C915C97FC0166
:1011E000F481F150B501A40129E0769567955795F2
:1011F00047952A95D1F7F423FD8321E09222FF231E
:1012000009F474C080E092E08819990956018C15A0
:101210009D0508F45C01D8015B96ED91FC915C970B
:1012200016962D903D904D905C901997B2E02B1A38
:10123000310841085108058404C0220C331C441CA9
:10124000551C0A94D2F786859785A089B189280E06
:10125000391E4A1E5B1EED812E0E311C411C511C95
:10126000A114F2E0BF0609F088C080910C019091B2
:101270000D01A0910E01B0910F0182159305A405F7
:10128000B50559F48FEF9FEFDC0180930C0190932B
:101290000D01A0930E01B0930F019701B201A101BE
:1012A00080910602909107020E942D07882309F47D
:1012B00087CF9EEFF91ACA18DB08F801828593855B
:1012C000A485B5858A0D9B1DA11DB11D82879387BD
:1012D000A487B587D8011A968D909D90AD90BC904B
:1012E0001D97C114D10409F075CF8AC081149104EF
:1012F00009F088CF16964D915D916D917C9119976B
:10130000411551056105710559F457968D919D91CF
:101310000D90BC91A02D0097A105B10541F521C00C
:101320009E012F5F3F4F0E94CD0A882309F44ECFC4
:1013300089819A81AB81BC81F801238D348DF901BB
:101340002789203129F448EF5FEF60E070E004C0A6
:1013500048EF5FEF6FEF7FE084179507A607B707A9
:1013600030F0C8010E94810781114CCF29CFF801CC
:1013700086839783A087B18745CF8114910429F58F
:10138000D8011A964D915D916D917C911D97539660
:101390008D919D910D90BC91A02D481759076A071A
:1013A0007B0798F00E94570A882309F409CF2092FE
:1013B0000C0130920D0140920E0150920F0180916C
:1013C000050281608093050208C041E0C201B101BD
:1013D0000E94920A882309F4F3CEC401885F9D4FCE
:1013E000D7019C012A0D3B1DFC01E217F30719F000
:1013F0004D914193FACFE81BF90BEE0EFF1E5BCF28
:1014000053968D919D910D90BC91A02DF801248152
:1014100088159905AA05BB0538F4838A948AA58A9C
:10142000B68A206824830CC08091FF01909100024D
:10143000892B31F06114710419F02068F8012483BC
:10144000D80114968C9183FD02C0C30107C0C80166
:101450000E946008882309F4B3CEF7CF0F900F9055
:101460000F900F900F90DF91CF911F910F91FF90F0
:10147000EF90DF90CF90BF90AF909F908F907F9034
:101480006F905F904F903F902F900895CF93DF9390
:101490001F92CDB7DEB7698341E050E0BE016F5FB8
:1014A0007F4F0E94A7080F90DF91CF910895809100
:1014B0000502882399F140910C0150910D01609132
:1014C0000E0170910F0128E032E0809106029091A8
:1014D00007020E942D07882319F1409101025091C3
:1014E00002026091030270910402411551056105E9
:1014F000710591F028E032E0809106029091070298
:101500000E942D07882361F01092010210920202BE
:1015100010920302109204021092050281E00895D5
:1015200080E00895CF92DF92EF92FF92CF936B010C
:101530007C01C42F80910C0190910D01A0910E01AE
:10154000B0910F018C159D05AE05BF05D1F00E942D
:10155000570A811102C080E01AC028E032E0B701CA
:10156000A60180910602909107020E94DA06882364
:1015700091F3C0920C01D0920D01E0920E01F09215
:101580000F01809105028C2B8093050281E0CF91A1
:10159000FF90EF90DF90CF9008958F929F92AF923F
:1015A000BF92CF92DF92EF92FF920F931F93CF9350
:1015B000DF938C016A017B01E901FC018185928541
:1015C000A385B4850196A11DB11D84179507A607B3
:1015D000B70710F480E058C0F80143895489658941
:1015E00076898789803129F4BB27AF2D9E2D8D2DDB
:1015F00009C0D701C60127E0B695A79597958795AD
:101600002A95D1F74C015D01840E951EA61EB71ECA
:10161000C501B40180900C0190900D01A0900E01C5
:10162000B0900F01681579058A059B0589F4F801CA
:101630008789803199F4DD24EE24FF24F601EE0F32
:10164000FF1FE85FFD4F80819181A0E0B0E017C0EF
:1016500040E00E94920A8111EACFBCCFE894C7F81B
:10166000DD24EE24FF24F601EE0FFF1FEE0FFF1F17
:10167000E85FFD4F80819181A281B381BF70888333
:101680009983AA83BB8381E0DF91CF911F910F9152
:10169000FF90EF90DF90CF90BF90AF909F908F9092
:1016A00008954F925F926F927F928F929F92AF9226
:1016B000BF92CF92DF92EF92FF920F931F93CF933F
:1016C000DF93EC016A017B012801390142305105A9
:1016D0006105710508F474C049855A856B857C8560
:1016E0004F5F5F4F6F4F7F4F4C155D056E057F0558
:1016F00008F466C08B889C88AD88BE888F8980314D
:1017000029F477276F2D5E2D4D2D09C0B701A60155
:10171000E7E07695679557954795EA95D1F7840E5A
:10172000951EA61EB71E40910C0150910D016091AF
:101730000E0170910F0184169506A606B70671F486
:101740008F89803199F4DD24EE24FF24F601EE0F19
:10175000FF1FE85FFD4F5182408218C040E0C50185
:10176000B4010E94920A8111EBCF2AC0E894C7F815
:10177000DD24EE24FF24F601EE0FFF1FEE0FFF1F06
:10178000E85FFD4F40825182628273828091050240
:101790008160809305028A89823080F08D819E81EC
:1017A000AF81B885880D991DAA1DBB1D80930102CC
:1017B00090930202A0930302B093040281E001C05F
:1017C00080E0DF91CF911F910F91FF90EF90DF901C
:1017D000CF90BF90AF909F908F907F906F905F90D1
:1017E0004F9008952F923F924F925F926F927F9207
:1017F0009F92AF92BF92CF92DF92EF92FF920F93A0
:101800001F93CF93DF93CDB7DEB760970FB6F894F1
:10181000DEBF0FBECDBF5C014D875E876F87788BC3
:101820001901D9014D905D906D907C904114510447
:101830006104710431F0BFEF4B1A5B0A6B0A7B0A3B
:1018400010C0FC0140805180628073809924939481
:101850000D851E852F85388901301105210531053B
:1018600009F0912CD50119962D913D914D915C91E6
:101870001C972F5F3F4F4F4F5F4F29873A874B870A
:101880005C87730162011D821E821F821886F5012A
:1018900081859285A385B4850D811E812F81388530
:1018A000081719072A073B0708F056C029853A850B
:1018B0004B855C852C153D054E055F0550F4A2E077
:1018C000CA2ED12CE12CF12CB2E04B2E512C612CE4
:1018D000712C9E012F5F3F4FB701A601C5010E94E9
:1018E000CD0A8823C9F149815A816B817C81D70156
:1018F000C6010196A11DB11D452B462B472B19F0A2
:101900002C013D010FC0AC01BD0144195509660908
:1019100077090D851E852F85388940175107620785
:10192000730779F02D813E814F8158852F5F3F4F9E
:101930004F4F5F4F2D833E834F8358876C017D014E
:10194000A6CF0FEF1FEF2FEF3FE0B701A601C501B4
:101950000E94510B811118C080E041C0D701C6011F
:101960000197A109B1098D839E83AF83B887970141
:101970008601AC01BD01C5010E94510B882361F3B2
:10198000CD80DE80EF80F8844C145D046E047F040B
:1019900028F3D1014D915D916D917C9141155105D7
:1019A0006105710599F4F10140825182628273826E
:1019B0009920A1F0FFEF4F1A5F0A6F0A7F0AD50145
:1019C0004D925D926D927C92139708C093018201B3
:1019D000C5010E94510B8111E6CFBECF81E0609618
:1019E0000FB6F894DEBF0FBECDBFDF91CF911F9130
:1019F0000F91FF90EF90DF90CF90BF90AF909F90AE
:101A00007F906F905F904F903F902F9008958091BE
:101A1000380490E020913904821B910908952091A7
:101A2000390480913804281750F4E22FF0E0E65C86
:101A3000FB4F808190E02F5F2093390408958FEF52
:101A40009FEF0895E091390480913804E81730F44D
:101A5000F0E0E65CFB4F808190E008958FEF9FEF10
:101A600008950895CF92DF92EF92FF920F931F9304
:101A7000CF93DF937C01CB018A01209114042223B0
:101A800089F0EB016B01C40ED51ECC15DD0569F0A4
:101A90006991D701ED91FC910190F081E02DC70192
:101AA0000995F3CF642F0E94EB0EC801DF91CF910F
:101AB0001F910F91FF90EF90DF90CF900895CF93FB
:101AC000DF931F92CDB7DEB76983209114042223E0
:101AD000D1F020911504203240F021E030E0FC01EB
:101AE0003383228380E090E015C080911604E82FB4
:101AF000F0E0E95EFB4F998190838F5F809316043D
:101B00008093150405C061E0CE0101960E94EB0EA2
:101B100081E090E00F90DF91CF910895FC01138256
:101B2000128248EE53E060E070E0448355836683A0
:101B3000778386E691E0918380830895109239043B
:101B40001092380410921604109215040C942E0E64
:101B500081E080931404609337041092160410926D
:101B6000150408950C94A80D0F93062F21E04091C1
:101B7000150467E174E0809137040E94940E10927E
:101B8000160410921504109214040F9108958F9268
:101B90009F92AF92BF92CF92DF92EF92FF920F93FC
:101BA0001F93CF93DF93EC01F62ED42E48015901F9
:101BB000EE2019F10E94A80D1E2D143008F013E03C
:101BC0001150B8F0E881F98128E0129FB00111248A
:101BD000A501940104C056954795379527956A95B8
:101BE000D2F7CA01B9010190F081E02DCE0109952B
:101BF000E7CF60E0CE010E94B40D4D2D413208F0D8
:101C000040E22C2D6AE374E08F2D0E944C0E10925E
:101C1000390480933804DF91CF911F910F91FF9089
:101C2000EF90DF90CF90BF90AF909F908F900895EE
:101C3000CF92EF920F931F93C22EE12C00E010E0A1
:101C400098010E94C70D1F910F91EF90CF900895BA
:101C50000C94180E88E094E00C948E0D1092C7043A
:101C600081E08093C5041092C40461E082E10E9487
:101C7000AE1161E083E10E94AE11E9EBF0E08081FA
:101C80008E7F808380818D7F808388E48093B800FD
:101C900085E48093BC000895413208F043C09091E0
:101CA000C7049111FCCF91E09093C7042093C50421
:101CB0002FEF20935A0410929F04240F20939E0428
:101CC0009093C6049091C604880F892B8093C60414
:101CD0008091C404813061F41092C4048091C604E0
:101CE0008093BB008091BC0083FDF8CF85EC01C0E0
:101CF00085EE8093BC008091C7048130E1F3809130
:101D00009F04841710F440919F0420EA34E0FB0103
:101D1000D9018A2F821B841718F48D918193F9CFF2
:101D2000842F089580E008950F93413208F04AC04F
:101D30009091C7049111FCCF92E09093C704009357
:101D4000C5049FEF90935A0410929F0440939E0401
:101D5000FB0160EA74E0DB019A2F961B941718F4DC
:101D600091919D93F9CF1092C6049091C604880F6B
:101D7000892B8093C6048091C404813061F4109251
:101D8000C4048091C6048093BB008091BC0083FD95
:101D9000F8CF85EC01C085EE8093BC00222321F0B2
:101DA0008091C7048230E1F380915A048F3F61F043
:101DB00080915A04803251F080915A04803341F46A
:101DC00083E007C081E005C080E003C082E001C07D
:101DD00084E00F910895613298F42091C704243073
:101DE00089F460937C04FC018EE794E0DC012A2FE7
:101DF000281B261718F421912D93F9CF80E0089520
:101E000081E0089582E0089585ED8093BC00809183
:101E1000BC0084FDFCCF1092C704089585EC80932C
:101E2000BC001092C70408951F920F920FB60F9234
:101E300011242F933F934F935F936F937F938F93CF
:101E40009F93AF93BF93EF93FF938091B900887FE7
:101E5000803609F49EC078F5883209F45DC090F4AC
:101E6000803109F456C038F4882309F4F5C088306D
:101E700009F44FC0F5C0883109F44EC0803209F42E
:101E80005FC0EEC0803409F46AC058F4803309F4AE
:101E900057C0883309F0E4C080935A040E940E0FA3
:101EA000DFC0803509F44FC0883509F45DC088343F
:101EB00009F0D6C0D3C0883909F4C4C0A8F4883763
:101EC00009F467C038F4883609F463C0803709F430
:101ED00060C0C6C0883809F4B5C0803909F45FC055
:101EE000803809F0BDC05BC0803B09F483C038F482
:101EF000803A09F466C0883A09F47CC0B1C0803CDD
:101F000009F4A4C0883C09F4A1C0883B09F487C047
:101F1000A7C08091C60410C090919F0480919E0438
:101F2000981770F5E0919F0481E08E0F80939F04D5
:101F3000F0E0E056FB4F80818093BB0085EC83C0CE
:101F400080935A048BC0E0919F0481E08E0F8093B0
:101F50009F048091BB00F0E0E056FB4F808390919E
:101F60009F0480919E046BC0E0919F0481E08E0FDE
:101F700080939F048091BB00F0E0E056FB4F80838C
:101F80008091C50481116AC081E08093C40484EA11
:101F90005EC083E08093C70410925B04CFCF809132
:101FA0005B04803208F04EC0E0915B0481E08E0F4C
:101FB00080935B048091BB00F0E0E45AFB4F808388
:101FC000BDCF0E940E0F80915B04803230F4E0910F
:101FD0005B04F0E0E45AFB4F108260915B0470E018
:101FE000E091C004F091C1048CE594E00995109251
:101FF0005B0436C084E08093C70410927D04109285
:102000007C04E091C204F091C304099580917C04A2
:10201000811105C081E080937C0410927E04E091E0
:102020007D0481E08E0F80937D04F0E0E258FB4F49
:1020300080818093BB0090917D0480917C049817EF
:1020400008F47CCF85E88093BC000AC085EC8093BF
:10205000BC001092C70404C010925A040E94040FDE
:10206000FF91EF91BF91AF919F918F917F916F9170
:102070005F914F913F912F910F900FBE0F901F9046
:1020800018951F920F920FB60F9211242F933F9322
:102090008F939F93AF93BF938091C9049091CA048B
:1020A000A091CB04B091CC043091C80423E0230F5D
:1020B0002D3720F40196A11DB11D05C026E8230F80
:1020C0000296A11DB11D2093C8048093C90490936A
:1020D000CA04A093CB04B093CC048091CD0490911A
:1020E000CE04A091CF04B091D0040196A11DB11DE2
:1020F0008093CD049093CE04A093CF04B093D004EA
:10210000BF91AF919F918F913F912F910F900FBEF3
:102110000F901F9018952FB7F8946091C904709193
:10212000CA048091CB049091CC042FBF08953FB78F
:10213000F8948091CD049091CE04A091CF04B091F9
:10214000D00426B5A89B05C02F3F19F00196A11D0C
:10215000B11D3FBF6627782F892F9A2F620F711DFF
:10216000811D911D42E0660F771F881F991F4A95B8
:10217000D1F708958F929F92AF92BF92CF92DF9244
:10218000EF92FF926B017C010E9497104B015C0162
:10219000C114D104E104F104F1F00E9449150E9438
:1021A0009710681979098A099B09683E734081056F
:1021B000910570F321E0C21AD108E108F10888EE18
:1021C000880E83E0981EA11CB11CC114D104E10447
:1021D000F10429F7DDCFFF90EF90DF90CF90BF9013
:1021E000AF909F908F900895789484B5826084BD5D
:1021F00084B5816084BD85B5826085BD85B581600B
:1022000085BDEEE6F0E0808181608083E1E8F0E06A
:102210001082808182608083808181608083E0E899
:10222000F0E0808181608083E1EBF0E08081846078
:102230008083E0EBF0E0808181608083EAE7F0E07A
:1022400080818460808380818260808380818160DE
:1022500080838081806880831092C10008958E30D1
:1022600008F08E5087702091100190E4299F900112
:102270001124822B80937C0080917A00806480936B
:102280007A0080917A0086FDFCCF809178002091C1
:10229000790090E0922B0895833081F028F481300A
:1022A00099F08230A1F008958730A9F08830B9F014
:1022B0008430D1F4809180008F7D03C080918000B4
:1022C0008F7780938000089584B58F7702C084B59E
:1022D0008F7D84BD08958091B0008F7703C0809179
:1022E000B0008F7D8093B0000895CF93DF9390E08E
:1022F000FC01E458FF4F2491FC01E057FF4F84910B
:10230000882349F190E0880F991FFC01E854FF4FA2
:10231000A591B49182559F4FFC01C591D4919FB76F
:10232000611108C0F8948C91209582238C93888148
:1023300082230AC0623051F4F8948C91322F309588
:1023400083238C938881822B888304C0F8948C919A
:10235000822B8C939FBFDF91CF9108950F931F9392
:10236000CF93DF931F92CDB7DEB7282F30E0F9016E
:10237000E859FF4F8491F901E458FF4F1491F90196
:10238000E057FF4F04910023C9F0882321F06983AF
:102390000E944C116981E02FF0E0EE0FFF1FE25523
:1023A000FF4FA591B4919FB7F8948C91611103C030
:1023B0001095812301C0812B8C939FBF0F90DF91DB
:1023C000CF911F910F910895CF93DF93282F30E085
:1023D000F901E859FF4F8491F901E458FF4FD49176
:1023E000F901E057FF4FC491CC2391F081110E9475
:1023F0004C11EC2FF0E0EE0FFF1FEC55FF4FA591B5
:10240000B4912C912D2381E090E021F480E002C072
:1024100080E090E0DF91CF910895FC01818D228DC5
:1024200090E0805C9F4F821B91098F7399270895DC
:10243000FC01918D828D981731F0828DE80FF11D8E
:10244000858D90E008958FEF9FEF0895FC01918DA9
:10245000828D981761F0828DDF01A80FB11D5D9606
:102460008C91928D9F5F9F73928F90E008958FEF74
:102470009FEF08958AEA93E1892B49F080E090E08C
:10248000892B29F00E94AA1381110C940000089551
:10249000FC01848DDF01A80FB11DA35ABF4F2C9101
:1024A000848D90E001968F739927848FA689B789D0
:1024B0002C93A089B1898C9180648C93938D848DA9
:1024C000981306C00288F389E02D80818F7D808378
:1024D0000895CF93DF93EC01888D8823C9F0EA89B2
:1024E000FB89808185FD05C0A889B9898C9186FD0D
:1024F0000FC00FB607FCF5CF808185FFF2CFA8890A
:10250000B9898C9185FFEDCFCE010E944812E7CFAB
:10251000DF91CF910895CF92DF92FF920F931F9397
:10252000CF93DF931F92CDB7DEB76C0181E0D60168
:1025300058968C9358975B969C915B975C968C9180
:102540005C97981307C05096ED91FC91519780814C
:1025500085FD2EC0F601038D10E00F5F1F4F0F7336
:102560001127F02EF601848DF81211C00FB607FC6A
:10257000F9CFD6015096ED91FC915197808185FF5E
:10258000F1CFC60169830E9448126981EBCF838D28
:10259000E80FF11DE35AFF4F6083D6015B960C9361
:1025A0005B975296ED91FC915397808180620CC0AD
:1025B000D6015696ED91FC91579760835096ED9118
:1025C000FC91519780818064808381E090E00F903E
:1025D000DF91CF911F910F91FF90DF90CF900895E1
:1025E000BF92CF92DF92EF92FF92CF93DF93EC01F5
:1025F0006A017B01B22EE889F98982E08083411566
:1026000081EE580761057105A1F060E079E08DE386
:1026100090E0A70196010E946615215031094109F9
:1026200051095695479537952795211580E138072B
:1026300098F0E889F989108260E874E88EE190E00A
:10264000A70196010E9466152150310941095109DF
:102650005695479537952795EC85FD853083EE8512
:10266000FF852083188EEC89FD89B082EA89FB8979
:10267000808180618083EA89FB8980818860808392
:10268000EA89FB89808180688083EA89FB8980816F
:102690008F7D8083DF91CF91FF90EF90DF90CF907F
:1026A000BF9008951F920F920FB60F9211242F938F
:1026B0008F939F93EF93FF93E091E104F091E204F5
:1026C0008081E091E704F091E80482FD12C09081DE
:1026D0008091EA048F5F8F732091EB04821751F091
:1026E000E091EA04F0E0EF52FB4F958F8093EA040B
:1026F00001C08081FF91EF919F918F912F910F9059
:102700000FBE0F901F9018951F920F920FB60F9249
:1027100011242F933F934F935F936F937F938F93E6
:102720009F93AF93BF93EF93FF9381ED94E00E944B
:102730004812FF91EF91BF91AF919F918F917F913F
:102740006F915F914F913F912F910F900FBE0F901E
:102750001F90189581ED94E00E940D1221E0892BC5
:1027600009F420E0822F08951092D4041092D3042B
:1027700088EE93E0A0E0B0E08093D5049093D60477
:10278000A093D704B093D80486E791E09093D20445
:102790008093D10485EC90E09093DE048093DD0477
:1027A00084EC90E09093E0048093DF0480EC90E070
:1027B0009093E2048093E10481EC90E09093E40430
:1027C0008093E30482EC90E09093E6048093E50428
:1027D00086EC90E09093E8048093E7041092EA047A
:1027E0001092EB041092EC041092ED040895CF9235
:1027F000DF92EF92FF920F931F93CF93DF937C01B1
:102800006A01EB0100E010E00C151D0571F0699103
:10281000D701ED91FC910190F081E02DC701099560
:10282000892B19F00F5F1F4FEFCFC801DF91CF91B8
:102830001F910F91FF90EF90DF90CF900895611559
:10284000710581F0DB010D900020E9F7AD014150E9
:102850005109461B570BDC01ED91FC910280F3817D
:10286000E02D099480E090E008950C941F14DC01A1
:10287000ED91FC910190F081E02D09948F929F924F
:10288000AF92BF92DF92EF92FF920F931F93CF937D
:10289000DF93CDB7DEB7A1970FB6F894DEBF0FBEBA
:1028A000CDBF7C01F42FD52ECB0119A2223008F424
:1028B0002AE08E010F5D1F4F822E912CA12CB12C8E
:1028C0006F2F7D2DA50194010E946615F22FD32E46
:1028D000CA01015011096A3014F4E0E301C0E7E3D2
:1028E000E60FD801EC93232B242B252B49F7B801B5
:1028F000C7010E941F14A1960FB6F894DEBF0FBE49
:10290000CDBFDF91CF911F910F91FF90EF90DF909E
:10291000BF90AF909F908F900895CF92DF92EF92EB
:10292000FF920F931F93CF93DF93EC016A017B011A
:102930002115310579F4E881F9810190F081E02DCC
:10294000642FDF91CF911F910F91FF90EF90DF9057
:10295000CF9009942A303105E9F477FF1AC06DE26F
:102960000E9437148C0144275527BA014C195D0980
:102970006E097F092AE0CE010E943E14800F911F4C
:10298000DF91CF911F910F91FF90EF90DF90CF904B
:1029900008952AE0B701A601CE01DF91CF911F91E2
:1029A0000F91FF90EF90DF90CF900C943E149A011E
:1029B000AB01662757FD6095762F0C948D14211579
:1029C000310541F4DC01ED91FC910190F081E02DA5
:1029D000642F09940C943E149A01AB0160E070E0FE
:1029E0000C94DF144F925F926F927F92AF92BF92DE
:1029F000CF92DF92EF92FF920F931F93CF93DF93CB
:102A0000CDB7DEB729013A01621B730B840B950B1E
:102A100029893A894B895C892A193B094C095D0946
:102A2000298B3A8B4B8B5C8B9B01AC0169897A8932
:102A30008B899C890E944A15E418F5080609170934
:102A4000A80197010E9488152A0D3B1D4C1D5D1D94
:102A5000CA01B901DF91CF911F910F91FF90EF90C3
:102A6000DF90CF90BF90AF907F906F905F904F902E
:102A7000089508950E94F4100E9439150E9497004D
:102A8000CAE3D2E10E94B3022097E1F30E943A1216
:102A9000F9CF0895DB018F939F930E94A715BF91F3
:102AA000AF91A29F800D911DA39F900DB29F900D9D
:102AB00011240895991B79E004C0991F961708F016
:102AC000961B881F7A95C9F780950895A1E21A2E62
:102AD000AA1BBB1BFD010DC0AA1FBB1FEE1FFF1FC2
:102AE000A217B307E407F50720F0A21BB30BE40B12
:102AF000F50B661F771F881F991F1A9469F7609559
:102B00007095809590959B01AC01BD01CF01089512
:102B1000052E97FB1EF400940E949F1557FD07D0C9
:102B20000E94661507FC03D04EF40C949F15509537
:102B30004095309521953F4F4F4F5F4F08959095A9
:102B40008095709561957F4F8F4F9F4F08950E949C
:102B5000B815A59F900DB49F900DA49F800D911D59
:102B600011240895EE0FFF1F0590F491E02D0994B4
:102B7000A29FB001B39FC001A39F700D811D1124BE
:102B8000911DB29F700D811D1124911D0895F8941F
:022B9000FFCF75
:102B920000006E05800001000000E803FFFFFFFF58
:102BA200010A7B226C6F6E67223A36302E39333837
:102BB2002C226C6174223A31392E3433337D0A006F
:102BC200427574746F6E2070726573736564212030
:102BD200456A6563740A00403020E0E0E0E0E0E02E
:102BE200E0E0E0E0E010E0E0E00000000000460A83
:102BF200F713000000005F0D320D070D0F0D220DBF
:102C0200310D000000008B12F7130D12261218125C
:022C1200691245
:00000001FF
